{"abi":[{"type":"constructor","inputs":[],"stateMutability":"nonpayable"},{"type":"function","name":"allowance","inputs":[{"name":"owner","type":"address","internalType":"address"},{"name":"spender","type":"address","internalType":"address"}],"outputs":[{"name":"","type":"uint256","internalType":"uint256"}],"stateMutability":"view"},{"type":"function","name":"approve","inputs":[{"name":"spender","type":"address","internalType":"address"},{"name":"amount","type":"uint256","internalType":"uint256"}],"outputs":[{"name":"","type":"bool","internalType":"bool"}],"stateMutability":"nonpayable"},{"type":"function","name":"balanceOf","inputs":[{"name":"account","type":"address","internalType":"address"}],"outputs":[{"name":"","type":"uint256","internalType":"uint256"}],"stateMutability":"view"},{"type":"function","name":"decimals","inputs":[],"outputs":[{"name":"","type":"uint8","internalType":"uint8"}],"stateMutability":"pure"},{"type":"function","name":"decreaseAllowance","inputs":[{"name":"spender","type":"address","internalType":"address"},{"name":"subtractedValue","type":"uint256","internalType":"uint256"}],"outputs":[{"name":"","type":"bool","internalType":"bool"}],"stateMutability":"nonpayable"},{"type":"function","name":"increaseAllowance","inputs":[{"name":"spender","type":"address","internalType":"address"},{"name":"addedValue","type":"uint256","internalType":"uint256"}],"outputs":[{"name":"","type":"bool","internalType":"bool"}],"stateMutability":"nonpayable"},{"type":"function","name":"mint","inputs":[{"name":"to","type":"address","internalType":"address"},{"name":"amount","type":"uint256","internalType":"uint256"}],"outputs":[],"stateMutability":"nonpayable"},{"type":"function","name":"mintThousand","inputs":[{"name":"to","type":"address","internalType":"address"}],"outputs":[],"stateMutability":"nonpayable"},{"type":"function","name":"name","inputs":[],"outputs":[{"name":"","type":"string","internalType":"string"}],"stateMutability":"view"},{"type":"function","name":"symbol","inputs":[],"outputs":[{"name":"","type":"string","internalType":"string"}],"stateMutability":"view"},{"type":"function","name":"totalSupply","inputs":[],"outputs":[{"name":"","type":"uint256","internalType":"uint256"}],"stateMutability":"view"},{"type":"function","name":"transfer","inputs":[{"name":"to","type":"address","internalType":"address"},{"name":"amount","type":"uint256","internalType":"uint256"}],"outputs":[{"name":"","type":"bool","internalType":"bool"}],"stateMutability":"nonpayable"},{"type":"function","name":"transferFrom","inputs":[{"name":"from","type":"address","internalType":"address"},{"name":"to","type":"address","internalType":"address"},{"name":"amount","type":"uint256","internalType":"uint256"}],"outputs":[{"name":"","type":"bool","internalType":"bool"}],"stateMutability":"nonpayable"},{"type":"event","name":"Approval","inputs":[{"name":"owner","type":"address","indexed":true,"internalType":"address"},{"name":"spender","type":"address","indexed":true,"internalType":"address"},{"name":"value","type":"uint256","indexed":false,"internalType":"uint256"}],"anonymous":false},{"type":"event","name":"Transfer","inputs":[{"name":"from","type":"address","indexed":true,"internalType":"address"},{"name":"to","type":"address","indexed":true,"internalType":"address"},{"name":"value","type":"uint256","indexed":false,"internalType":"uint256"}],"anonymous":false}],"bytecode":{"object":"0x608060405234801561000f575f80fd5b50604051806040016040528060098152602001684d6f636b205553444360b81b815250604051806040016040528060048152602001635553444360e01b815250816003908161005e919061010d565b50600461006b828261010d565b5050506101c8565b634e487b7160e01b5f52604160045260245ffd5b600181811c9082168061009b57607f821691505b6020821081036100b957634e487b7160e01b5f52602260045260245ffd5b50919050565b601f821115610108575f81815260208120601f850160051c810160208610156100e55750805b601f850160051c820191505b81811015610104578281556001016100f1565b5050505b505050565b81516001600160401b0381111561012657610126610073565b61013a816101348454610087565b846100bf565b602080601f83116001811461016d575f84156101565750858301515b5f19600386901b1c1916600185901b178555610104565b5f85815260208120601f198616915b8281101561019b5788860151825594840194600190910190840161017c565b50858210156101b857878501515f19600388901b60f8161c191681555b5050505050600190811b01905550565b610958806101d55f395ff3fe608060405234801561000f575f80fd5b50600436106100cb575f3560e01c8063395093511161008857806395d89b411161006357806395d89b41146101a7578063a457c2d7146101af578063a9059cbb146101c2578063dd62ed3e146101d5575f80fd5b8063395093511461015957806340c10f191461016c57806370a082311461017f575f80fd5b8063018a4099146100cf57806306fdde03146100e4578063095ea7b31461010257806318160ddd1461012557806323b872dd14610137578063313ce5671461014a575b5f80fd5b6100e26100dd3660046107ce565b6101e8565b005b6100ec6101f9565b6040516100f991906107ee565b60405180910390f35b610115610110366004610839565b610289565b60405190151581526020016100f9565b6002545b6040519081526020016100f9565b610115610145366004610861565b6102a2565b604051600681526020016100f9565b610115610167366004610839565b6102c5565b6100e261017a366004610839565b6102e6565b61012961018d3660046107ce565b6001600160a01b03165f9081526020819052604090205490565b6100ec6102f4565b6101156101bd366004610839565b610303565b6101156101d0366004610839565b610382565b6101296101e336600461089a565b61038f565b6101f681633b9aca006103b9565b50565b606060038054610208906108cb565b80601f0160208091040260200160405190810160405280929190818152602001828054610234906108cb565b801561027f5780601f106102565761010080835404028352916020019161027f565b820191905f5260205f20905b81548152906001019060200180831161026257829003601f168201915b5050505050905090565b5f33610296818585610476565b60019150505b92915050565b5f336102af858285610599565b6102ba858585610611565b506001949350505050565b5f336102968185856102d7838361038f565b6102e19190610903565b610476565b6102f082826103b9565b5050565b606060048054610208906108cb565b5f3381610310828661038f565b9050838110156103755760405162461bcd60e51b815260206004820152602560248201527f45524332303a2064656372656173656420616c6c6f77616e63652062656c6f77604482015264207a65726f60d81b60648201526084015b60405180910390fd5b6102ba8286868403610476565b5f33610296818585610611565b6001600160a01b039182165f90815260016020908152604080832093909416825291909152205490565b6001600160a01b03821661040f5760405162461bcd60e51b815260206004820152601f60248201527f45524332303a206d696e7420746f20746865207a65726f206164647265737300604482015260640161036c565b8060025f8282546104209190610903565b90915550506001600160a01b0382165f81815260208181526040808320805486019055518481527fddf252ad1be2c89b69c2b068fc378daa952ba7f163c4a11628f55a4df523b3ef910160405180910390a35050565b6001600160a01b0383166104d85760405162461bcd60e51b8152602060048201526024808201527f45524332303a20617070726f76652066726f6d20746865207a65726f206164646044820152637265737360e01b606482015260840161036c565b6001600160a01b0382166105395760405162461bcd60e51b815260206004820152602260248201527f45524332303a20617070726f766520746f20746865207a65726f206164647265604482015261737360f01b606482015260840161036c565b6001600160a01b038381165f8181526001602090815260408083209487168084529482529182902085905590518481527f8c5be1e5ebec7d5bd14f71427d1e84f3dd0314c0f7b2291e5b200ac8c7c3b925910160405180910390a3505050565b5f6105a4848461038f565b90505f19811461060b57818110156105fe5760405162461bcd60e51b815260206004820152601d60248201527f45524332303a20696e73756666696369656e7420616c6c6f77616e6365000000604482015260640161036c565b61060b8484848403610476565b50505050565b6001600160a01b0383166106755760405162461bcd60e51b815260206004820152602560248201527f45524332303a207472616e736665722066726f6d20746865207a65726f206164604482015264647265737360d81b606482015260840161036c565b6001600160a01b0382166106d75760405162461bcd60e51b815260206004820152602360248201527f45524332303a207472616e7366657220746f20746865207a65726f206164647260448201526265737360e81b606482015260840161036c565b6001600160a01b0383165f908152602081905260409020548181101561074e5760405162461bcd60e51b815260206004820152602660248201527f45524332303a207472616e7366657220616d6f756e7420657863656564732062604482015265616c616e636560d01b606482015260840161036c565b6001600160a01b038481165f81815260208181526040808320878703905593871680835291849020805487019055925185815290927fddf252ad1be2c89b69c2b068fc378daa952ba7f163c4a11628f55a4df523b3ef910160405180910390a361060b565b80356001600160a01b03811681146107c9575f80fd5b919050565b5f602082840312156107de575f80fd5b6107e7826107b3565b9392505050565b5f6020808352835180828501525f5b81811015610819578581018301518582016040015282016107fd565b505f604082860101526040601f19601f8301168501019250505092915050565b5f806040838503121561084a575f80fd5b610853836107b3565b946020939093013593505050565b5f805f60608486031215610873575f80fd5b61087c846107b3565b925061088a602085016107b3565b9150604084013590509250925092565b5f80604083850312156108ab575f80fd5b6108b4836107b3565b91506108c2602084016107b3565b90509250929050565b600181811c908216806108df57607f821691505b6020821081036108fd57634e487b7160e01b5f52602260045260245ffd5b50919050565b8082018082111561029c57634e487b7160e01b5f52601160045260245ffdfea2646970667358221220d01a6387057ba21d7e98f99e4288bc2064c4864a38ab470abe595eeb0e65997364736f6c63430008140033","linkReferences":{}},"methodIdentifiers":{"allowance(address,address)":"dd62ed3e","approve(address,uint256)":"095ea7b3","balanceOf(address)":"70a08231","decimals()":"313ce567","decreaseAllowance(address,uint256)":"a457c2d7","increaseAllowance(address,uint256)":"39509351","mint(address,uint256)":"40c10f19","mintThousand(address)":"018a4099","name()":"06fdde03","symbol()":"95d89b41","totalSupply()":"18160ddd","transfer(address,uint256)":"a9059cbb","transferFrom(address,address,uint256)":"23b872dd"},"id":30}