{"abi":[{"type":"constructor","inputs":[{"name":"name","type":"string","internalType":"string"},{"name":"symbol","type":"string","internalType":"string"},{"name":"_isYes","type":"bool","internalType":"bool"},{"name":"_marketId","type":"uint256","internalType":"uint256"},{"name":"initialOwner","type":"address","internalType":"address"}],"stateMutability":"nonpayable"},{"type":"function","name":"allowance","inputs":[{"name":"owner","type":"address","internalType":"address"},{"name":"spender","type":"address","internalType":"address"}],"outputs":[{"name":"","type":"uint256","internalType":"uint256"}],"stateMutability":"view"},{"type":"function","name":"approve","inputs":[{"name":"spender","type":"address","internalType":"address"},{"name":"amount","type":"uint256","internalType":"uint256"}],"outputs":[{"name":"","type":"bool","internalType":"bool"}],"stateMutability":"nonpayable"},{"type":"function","name":"balanceOf","inputs":[{"name":"account","type":"address","internalType":"address"}],"outputs":[{"name":"","type":"uint256","internalType":"uint256"}],"stateMutability":"view"},{"type":"function","name":"burn","inputs":[{"name":"from","type":"address","internalType":"address"},{"name":"amount","type":"uint256","internalType":"uint256"}],"outputs":[],"stateMutability":"nonpayable"},{"type":"function","name":"decimals","inputs":[],"outputs":[{"name":"","type":"uint8","internalType":"uint8"}],"stateMutability":"view"},{"type":"function","name":"decreaseAllowance","inputs":[{"name":"spender","type":"address","internalType":"address"},{"name":"subtractedValue","type":"uint256","internalType":"uint256"}],"outputs":[{"name":"","type":"bool","internalType":"bool"}],"stateMutability":"nonpayable"},{"type":"function","name":"increaseAllowance","inputs":[{"name":"spender","type":"address","internalType":"address"},{"name":"addedValue","type":"uint256","internalType":"uint256"}],"outputs":[{"name":"","type":"bool","internalType":"bool"}],"stateMutability":"nonpayable"},{"type":"function","name":"isYes","inputs":[],"outputs":[{"name":"","type":"bool","internalType":"bool"}],"stateMutability":"view"},{"type":"function","name":"marketId","inputs":[],"outputs":[{"name":"","type":"uint256","internalType":"uint256"}],"stateMutability":"view"},{"type":"function","name":"mint","inputs":[{"name":"to","type":"address","internalType":"address"},{"name":"amount","type":"uint256","internalType":"uint256"}],"outputs":[],"stateMutability":"nonpayable"},{"type":"function","name":"name","inputs":[],"outputs":[{"name":"","type":"string","internalType":"string"}],"stateMutability":"view"},{"type":"function","name":"owner","inputs":[],"outputs":[{"name":"","type":"address","internalType":"address"}],"stateMutability":"view"},{"type":"function","name":"renounceOwnership","inputs":[],"outputs":[],"stateMutability":"nonpayable"},{"type":"function","name":"symbol","inputs":[],"outputs":[{"name":"","type":"string","internalType":"string"}],"stateMutability":"view"},{"type":"function","name":"totalSupply","inputs":[],"outputs":[{"name":"","type":"uint256","internalType":"uint256"}],"stateMutability":"view"},{"type":"function","name":"transfer","inputs":[{"name":"to","type":"address","internalType":"address"},{"name":"amount","type":"uint256","internalType":"uint256"}],"outputs":[{"name":"","type":"bool","internalType":"bool"}],"stateMutability":"nonpayable"},{"type":"function","name":"transferFrom","inputs":[{"name":"from","type":"address","internalType":"address"},{"name":"to","type":"address","internalType":"address"},{"name":"amount","type":"uint256","internalType":"uint256"}],"outputs":[{"name":"","type":"bool","internalType":"bool"}],"stateMutability":"nonpayable"},{"type":"function","name":"transferOwnership","inputs":[{"name":"newOwner","type":"address","internalType":"address"}],"outputs":[],"stateMutability":"nonpayable"},{"type":"event","name":"Approval","inputs":[{"name":"owner","type":"address","indexed":true,"internalType":"address"},{"name":"spender","type":"address","indexed":true,"internalType":"address"},{"name":"value","type":"uint256","indexed":false,"internalType":"uint256"}],"anonymous":false},{"type":"event","name":"OwnershipTransferred","inputs":[{"name":"previousOwner","type":"address","indexed":true,"internalType":"address"},{"name":"newOwner","type":"address","indexed":true,"internalType":"address"}],"anonymous":false},{"type":"event","name":"Transfer","inputs":[{"name":"from","type":"address","indexed":true,"internalType":"address"},{"name":"to","type":"address","indexed":true,"internalType":"address"},{"name":"value","type":"uint256","indexed":false,"internalType":"uint256"}],"anonymous":false}],"bytecode":{"object":"0x60c060405234801562000010575f80fd5b506040516200104b3803806200104b8339810160408190526200003391620001a3565b84846003620000438382620002d6565b506004620000528282620002d6565b5050506200006f620000696200009060201b60201c565b62000094565b82151560805260a0829052620000858162000094565b50505050506200039e565b3390565b600580546001600160a01b038381166001600160a01b0319831681179093556040519116919082907f8be0079c531659141344cd1fd0a4f28419497f9722a3daafe3b4186f6b6457e0905f90a35050565b634e487b7160e01b5f52604160045260245ffd5b5f82601f83011262000109575f80fd5b81516001600160401b0380821115620001265762000126620000e5565b604051601f8301601f19908116603f01168101908282118183101715620001515762000151620000e5565b816040528381526020925086838588010111156200016d575f80fd5b5f91505b8382101562000190578582018301518183018401529082019062000171565b5f93810190920192909252949350505050565b5f805f805f60a08688031215620001b8575f80fd5b85516001600160401b0380821115620001cf575f80fd5b620001dd89838a01620000f9565b96506020880151915080821115620001f3575f80fd5b506200020288828901620000f9565b9450506040860151801515811462000218575f80fd5b6060870151608088015191945092506001600160a01b03811681146200023c575f80fd5b809150509295509295909350565b600181811c908216806200025f57607f821691505b6020821081036200027e57634e487b7160e01b5f52602260045260245ffd5b50919050565b601f821115620002d1575f81815260208120601f850160051c81016020861015620002ac5750805b601f850160051c820191505b81811015620002cd57828155600101620002b8565b5050505b505050565b81516001600160401b03811115620002f257620002f2620000e5565b6200030a816200030384546200024a565b8462000284565b602080601f83116001811462000340575f8415620003285750858301515b5f19600386901b1c1916600185901b178555620002cd565b5f85815260208120601f198616915b8281101562000370578886015182559484019460019091019084016200034f565b50858210156200038e57878501515f19600388901b60f8161c191681555b5050505050600190811b01905550565b60805160a051610c8b620003c05f395f6101b701525f6102310152610c8b5ff3fe608060405234801561000f575f80fd5b5060043610610111575f3560e01c8063715018a61161009e5780639dc29fac1161006e5780639dc29fac14610253578063a457c2d714610266578063a9059cbb14610279578063dd62ed3e1461028c578063f2fde38b1461029f575f80fd5b8063715018a6146102015780638da5cb5b1461020957806395d89b4114610224578063983babb41461022c575f80fd5b8063313ce567116100e4578063313ce5671461017b578063395093511461018a57806340c10f191461019d5780636ed71ede146101b257806370a08231146101d9575f80fd5b806306fdde0314610115578063095ea7b31461013357806318160ddd1461015657806323b872dd14610168575b5f80fd5b61011d6102b2565b60405161012a9190610ae6565b60405180910390f35b610146610141366004610b4c565b610342565b604051901515815260200161012a565b6002545b60405190815260200161012a565b610146610176366004610b74565b61035b565b6040516012815260200161012a565b610146610198366004610b4c565b61037e565b6101b06101ab366004610b4c565b61039f565b005b61015a7f000000000000000000000000000000000000000000000000000000000000000081565b61015a6101e7366004610bad565b6001600160a01b03165f9081526020819052604090205490565b6101b06103b5565b6005546040516001600160a01b03909116815260200161012a565b61011d6103c8565b6101467f000000000000000000000000000000000000000000000000000000000000000081565b6101b0610261366004610b4c565b6103d7565b610146610274366004610b4c565b6103e9565b610146610287366004610b4c565b610468565b61015a61029a366004610bcd565b610475565b6101b06102ad366004610bad565b61049f565b6060600380546102c190610bfe565b80601f01602080910402602001604051908101604052809291908181526020018280546102ed90610bfe565b80156103385780601f1061030f57610100808354040283529160200191610338565b820191905f5260205f20905b81548152906001019060200180831161031b57829003601f168201915b5050505050905090565b5f3361034f818585610518565b60019150505b92915050565b5f3361036885828561063c565b6103738585856106b4565b506001949350505050565b5f3361034f8185856103908383610475565b61039a9190610c36565b610518565b6103a7610856565b6103b182826108b0565b5050565b6103bd610856565b6103c65f61096d565b565b6060600480546102c190610bfe565b6103df610856565b6103b182826109be565b5f33816103f68286610475565b90508381101561045b5760405162461bcd60e51b815260206004820152602560248201527f45524332303a2064656372656173656420616c6c6f77616e63652062656c6f77604482015264207a65726f60d81b60648201526084015b60405180910390fd5b6103738286868403610518565b5f3361034f8185856106b4565b6001600160a01b039182165f90815260016020908152604080832093909416825291909152205490565b6104a7610856565b6001600160a01b03811661050c5760405162461bcd60e51b815260206004820152602660248201527f4f776e61626c653a206e6577206f776e657220697320746865207a65726f206160448201526564647265737360d01b6064820152608401610452565b6105158161096d565b50565b6001600160a01b03831661057a5760405162461bcd60e51b8152602060048201526024808201527f45524332303a20617070726f76652066726f6d20746865207a65726f206164646044820152637265737360e01b6064820152608401610452565b6001600160a01b0382166105db5760405162461bcd60e51b815260206004820152602260248201527f45524332303a20617070726f766520746f20746865207a65726f206164647265604482015261737360f01b6064820152608401610452565b6001600160a01b038381165f8181526001602090815260408083209487168084529482529182902085905590518481527f8c5be1e5ebec7d5bd14f71427d1e84f3dd0314c0f7b2291e5b200ac8c7c3b92591015b60405180910390a3505050565b5f6106478484610475565b90505f1981146106ae57818110156106a15760405162461bcd60e51b815260206004820152601d60248201527f45524332303a20696e73756666696369656e7420616c6c6f77616e63650000006044820152606401610452565b6106ae8484848403610518565b50505050565b6001600160a01b0383166107185760405162461bcd60e51b815260206004820152602560248201527f45524332303a207472616e736665722066726f6d20746865207a65726f206164604482015264647265737360d81b6064820152608401610452565b6001600160a01b03821661077a5760405162461bcd60e51b815260206004820152602360248201527f45524332303a207472616e7366657220746f20746865207a65726f206164647260448201526265737360e81b6064820152608401610452565b6001600160a01b0383165f90815260208190526040902054818110156107f15760405162461bcd60e51b815260206004820152602660248201527f45524332303a207472616e7366657220616d6f756e7420657863656564732062604482015265616c616e636560d01b6064820152608401610452565b6001600160a01b038481165f81815260208181526040808320878703905593871680835291849020805487019055925185815290927fddf252ad1be2c89b69c2b068fc378daa952ba7f163c4a11628f55a4df523b3ef910160405180910390a36106ae565b6005546001600160a01b031633146103c65760405162461bcd60e51b815260206004820181905260248201527f4f776e61626c653a2063616c6c6572206973206e6f7420746865206f776e65726044820152606401610452565b6001600160a01b0382166109065760405162461bcd60e51b815260206004820152601f60248201527f45524332303a206d696e7420746f20746865207a65726f2061646472657373006044820152606401610452565b8060025f8282546109179190610c36565b90915550506001600160a01b0382165f81815260208181526040808320805486019055518481527fddf252ad1be2c89b69c2b068fc378daa952ba7f163c4a11628f55a4df523b3ef910160405180910390a35050565b600580546001600160a01b038381166001600160a01b0319831681179093556040519116919082907f8be0079c531659141344cd1fd0a4f28419497f9722a3daafe3b4186f6b6457e0905f90a35050565b6001600160a01b038216610a1e5760405162461bcd60e51b815260206004820152602160248201527f45524332303a206275726e2066726f6d20746865207a65726f206164647265736044820152607360f81b6064820152608401610452565b6001600160a01b0382165f9081526020819052604090205481811015610a915760405162461bcd60e51b815260206004820152602260248201527f45524332303a206275726e20616d6f756e7420657863656564732062616c616e604482015261636560f01b6064820152608401610452565b6001600160a01b0383165f818152602081815260408083208686039055600280548790039055518581529192917fddf252ad1be2c89b69c2b068fc378daa952ba7f163c4a11628f55a4df523b3ef910161062f565b5f6020808352835180828501525f5b81811015610b1157858101830151858201604001528201610af5565b505f604082860101526040601f19601f8301168501019250505092915050565b80356001600160a01b0381168114610b47575f80fd5b919050565b5f8060408385031215610b5d575f80fd5b610b6683610b31565b946020939093013593505050565b5f805f60608486031215610b86575f80fd5b610b8f84610b31565b9250610b9d60208501610b31565b9150604084013590509250925092565b5f60208284031215610bbd575f80fd5b610bc682610b31565b9392505050565b5f8060408385031215610bde575f80fd5b610be783610b31565b9150610bf560208401610b31565b90509250929050565b600181811c90821680610c1257607f821691505b602082108103610c3057634e487b7160e01b5f52602260045260245ffd5b50919050565b8082018082111561035557634e487b7160e01b5f52601160045260245ffdfea264697066735822122093845a4c645193a9cc91fb06c81fcb5fca410ea254c4bd42dd7e52f48605219164736f6c63430008140033","linkReferences":{}},"methodIdentifiers":{"allowance(address,address)":"dd62ed3e","approve(address,uint256)":"095ea7b3","balanceOf(address)":"70a08231","burn(address,uint256)":"9dc29fac","decimals()":"313ce567","decreaseAllowance(address,uint256)":"a457c2d7","increaseAllowance(address,uint256)":"39509351","isYes()":"983babb4","marketId()":"6ed71ede","mint(address,uint256)":"40c10f19","name()":"06fdde03","owner()":"8da5cb5b","renounceOwnership()":"715018a6","symbol()":"95d89b41","totalSupply()":"18160ddd","transfer(address,uint256)":"a9059cbb","transferFrom(address,address,uint256)":"23b872dd","transferOwnership(address)":"f2fde38b"},"id":31}