{"abi":[{"type":"constructor","inputs":[{"name":"_settlementToken","type":"address","internalType":"address"},{"name":"_oracle","type":"address","internalType":"address"}],"stateMutability":"nonpayable"},{"type":"function","name":"FEE_DENOMINATOR","inputs":[],"outputs":[{"name":"","type":"uint256","internalType":"uint256"}],"stateMutability":"view"},{"type":"function","name":"K_MULTIPLIER","inputs":[],"outputs":[{"name":"","type":"uint256","internalType":"uint256"}],"stateMutability":"view"},{"type":"function","name":"MAX_FEE","inputs":[],"outputs":[{"name":"","type":"uint256","internalType":"uint256"}],"stateMutability":"view"},{"type":"function","name":"MINIMUM_LIQUIDITY","inputs":[],"outputs":[{"name":"","type":"uint256","internalType":"uint256"}],"stateMutability":"view"},{"type":"function","name":"addLiquidity","inputs":[{"name":"marketId","type":"uint256","internalType":"uint256"},{"name":"amount","type":"uint256","internalType":"uint256"}],"outputs":[],"stateMutability":"nonpayable"},{"type":"function","name":"buyShares","inputs":[{"name":"marketId","type":"uint256","internalType":"uint256"},{"name":"isYes","type":"bool","internalType":"bool"},{"name":"amountIn","type":"uint256","internalType":"uint256"},{"name":"minSharesOut","type":"uint256","internalType":"uint256"}],"outputs":[{"name":"sharesOut","type":"uint256","internalType":"uint256"}],"stateMutability":"nonpayable"},{"type":"function","name":"claimLiquidityProviderFees","inputs":[{"name":"marketId","type":"uint256","internalType":"uint256"}],"outputs":[],"stateMutability":"nonpayable"},{"type":"function","name":"claimWinnings","inputs":[{"name":"marketId","type":"uint256","internalType":"uint256"}],"outputs":[],"stateMutability":"nonpayable"},{"type":"function","name":"createMarket","inputs":[{"name":"question","type":"string","internalType":"string"},{"name":"resolutionTime","type":"uint256","internalType":"uint256"}],"outputs":[{"name":"marketId","type":"uint256","internalType":"uint256"}],"stateMutability":"nonpayable"},{"type":"function","name":"forceResolveMarket","inputs":[{"name":"marketId","type":"uint256","internalType":"uint256"},{"name":"outcome","type":"uint8","internalType":"enum PredictionMarket.Outcome"}],"outputs":[],"stateMutability":"nonpayable"},{"type":"function","name":"getClaimableLiquidityProviderFees","inputs":[{"name":"marketId","type":"uint256","internalType":"uint256"},{"name":"user","type":"address","internalType":"address"}],"outputs":[{"name":"claimableAmount","type":"uint256","internalType":"uint256"}],"stateMutability":"view"},{"type":"function","name":"getMarket","inputs":[{"name":"marketId","type":"uint256","internalType":"uint256"}],"outputs":[{"name":"","type":"tuple","internalType":"struct PredictionMarket.Market","components":[{"name":"id","type":"uint256","internalType":"uint256"},{"name":"question","type":"string","internalType":"string"},{"name":"creator","type":"address","internalType":"address"},{"name":"resolutionTime","type":"uint256","internalType":"uint256"},{"name":"createdAt","type":"uint256","internalType":"uint256"},{"name":"status","type":"uint8","internalType":"enum PredictionMarket.MarketStatus"},{"name":"outcome","type":"uint8","internalType":"enum PredictionMarket.Outcome"},{"name":"totalYesShares","type":"uint256","internalType":"uint256"},{"name":"totalNoShares","type":"uint256","internalType":"uint256"},{"name":"liquidityPool","type":"uint256","internalType":"uint256"},{"name":"feesCollected","type":"uint256","internalType":"uint256"}]}],"stateMutability":"view"},{"type":"function","name":"getSharePrice","inputs":[{"name":"marketId","type":"uint256","internalType":"uint256"},{"name":"isYes","type":"bool","internalType":"bool"}],"outputs":[{"name":"price","type":"uint256","internalType":"uint256"}],"stateMutability":"view"},{"type":"function","name":"getSharesOut","inputs":[{"name":"marketId","type":"uint256","internalType":"uint256"},{"name":"isYes","type":"bool","internalType":"bool"},{"name":"amountIn","type":"uint256","internalType":"uint256"}],"outputs":[{"name":"sharesOut","type":"uint256","internalType":"uint256"}],"stateMutability":"view"},{"type":"function","name":"marketCount","inputs":[],"outputs":[{"name":"","type":"uint256","internalType":"uint256"}],"stateMutability":"view"},{"type":"function","name":"markets","inputs":[{"name":"","type":"uint256","internalType":"uint256"}],"outputs":[{"name":"id","type":"uint256","internalType":"uint256"},{"name":"question","type":"string","internalType":"string"},{"name":"creator","type":"address","internalType":"address"},{"name":"resolutionTime","type":"uint256","internalType":"uint256"},{"name":"createdAt","type":"uint256","internalType":"uint256"},{"name":"status","type":"uint8","internalType":"enum PredictionMarket.MarketStatus"},{"name":"outcome","type":"uint8","internalType":"enum PredictionMarket.Outcome"},{"name":"totalYesShares","type":"uint256","internalType":"uint256"},{"name":"totalNoShares","type":"uint256","internalType":"uint256"},{"name":"liquidityPool","type":"uint256","internalType":"uint256"},{"name":"feesCollected","type":"uint256","internalType":"uint256"}],"stateMutability":"view"},{"type":"function","name":"noTokens","inputs":[{"name":"","type":"uint256","internalType":"uint256"}],"outputs":[{"name":"","type":"address","internalType":"contract OutcomeToken"}],"stateMutability":"view"},{"type":"function","name":"oracle","inputs":[],"outputs":[{"name":"","type":"address","internalType":"address"}],"stateMutability":"view"},{"type":"function","name":"owner","inputs":[],"outputs":[{"name":"","type":"address","internalType":"address"}],"stateMutability":"view"},{"type":"function","name":"removeLiquidity","inputs":[{"name":"marketId","type":"uint256","internalType":"uint256"},{"name":"yesAmount","type":"uint256","internalType":"uint256"},{"name":"noAmount","type":"uint256","internalType":"uint256"}],"outputs":[],"stateMutability":"nonpayable"},{"type":"function","name":"renounceOwnership","inputs":[],"outputs":[],"stateMutability":"nonpayable"},{"type":"function","name":"resolveMarket","inputs":[{"name":"marketId","type":"uint256","internalType":"uint256"},{"name":"outcome","type":"uint8","internalType":"enum PredictionMarket.Outcome"}],"outputs":[],"stateMutability":"nonpayable"},{"type":"function","name":"setOracle","inputs":[{"name":"newOracle","type":"address","internalType":"address"}],"outputs":[],"stateMutability":"nonpayable"},{"type":"function","name":"setTradingFee","inputs":[{"name":"newFee","type":"uint256","internalType":"uint256"}],"outputs":[],"stateMutability":"nonpayable"},{"type":"function","name":"settlementToken","inputs":[],"outputs":[{"name":"","type":"address","internalType":"contract IERC20"}],"stateMutability":"view"},{"type":"function","name":"tradingFee","inputs":[],"outputs":[{"name":"","type":"uint256","internalType":"uint256"}],"stateMutability":"view"},{"type":"function","name":"transferOwnership","inputs":[{"name":"newOwner","type":"address","internalType":"address"}],"outputs":[],"stateMutability":"nonpayable"},{"type":"function","name":"userClaimedFees","inputs":[{"name":"","type":"uint256","internalType":"uint256"},{"name":"","type":"address","internalType":"address"}],"outputs":[{"name":"","type":"uint256","internalType":"uint256"}],"stateMutability":"view"},{"type":"function","name":"withdrawFees","inputs":[{"name":"marketId","type":"uint256","internalType":"uint256"}],"outputs":[],"stateMutability":"nonpayable"},{"type":"function","name":"yesTokens","inputs":[{"name":"","type":"uint256","internalType":"uint256"}],"outputs":[{"name":"","type":"address","internalType":"contract OutcomeToken"}],"stateMutability":"view"},{"type":"event","name":"FeeUpdated","inputs":[{"name":"oldFee","type":"uint256","indexed":false,"internalType":"uint256"},{"name":"newFee","type":"uint256","indexed":false,"internalType":"uint256"}],"anonymous":false},{"type":"event","name":"LiquidityAdded","inputs":[{"name":"marketId","type":"uint256","indexed":true,"internalType":"uint256"},{"name":"provider","type":"address","indexed":true,"internalType":"address"},{"name":"amount","type":"uint256","indexed":false,"internalType":"uint256"},{"name":"yesShares","type":"uint256","indexed":false,"internalType":"uint256"},{"name":"noShares","type":"uint256","indexed":false,"internalType":"uint256"}],"anonymous":false},{"type":"event","name":"LiquidityProviderFeesClaimed","inputs":[{"name":"marketId","type":"uint256","indexed":true,"internalType":"uint256"},{"name":"provider","type":"address","indexed":true,"internalType":"address"},{"name":"amount","type":"uint256","indexed":false,"internalType":"uint256"}],"anonymous":false},{"type":"event","name":"LiquidityRemoved","inputs":[{"name":"marketId","type":"uint256","indexed":true,"internalType":"uint256"},{"name":"provider","type":"address","indexed":true,"internalType":"address"},{"name":"yesShares","type":"uint256","indexed":false,"internalType":"uint256"},{"name":"noShares","type":"uint256","indexed":false,"internalType":"uint256"},{"name":"amount","type":"uint256","indexed":false,"internalType":"uint256"}],"anonymous":false},{"type":"event","name":"MarketCreated","inputs":[{"name":"marketId","type":"uint256","indexed":true,"internalType":"uint256"},{"name":"creator","type":"address","indexed":true,"internalType":"address"},{"name":"question","type":"string","indexed":false,"internalType":"string"},{"name":"resolutionTime","type":"uint256","indexed":false,"internalType":"uint256"}],"anonymous":false},{"type":"event","name":"MarketResolved","inputs":[{"name":"marketId","type":"uint256","indexed":true,"internalType":"uint256"},{"name":"outcome","type":"uint8","indexed":false,"internalType":"enum PredictionMarket.Outcome"},{"name":"resolver","type":"address","indexed":true,"internalType":"address"}],"anonymous":false},{"type":"event","name":"OracleUpdated","inputs":[{"name":"oldOracle","type":"address","indexed":true,"internalType":"address"},{"name":"newOracle","type":"address","indexed":true,"internalType":"address"}],"anonymous":false},{"type":"event","name":"OwnershipTransferred","inputs":[{"name":"previousOwner","type":"address","indexed":true,"internalType":"address"},{"name":"newOwner","type":"address","indexed":true,"internalType":"address"}],"anonymous":false},{"type":"event","name":"PositionBought","inputs":[{"name":"marketId","type":"uint256","indexed":true,"internalType":"uint256"},{"name":"buyer","type":"address","indexed":true,"internalType":"address"},{"name":"isYes","type":"bool","indexed":false,"internalType":"bool"},{"name":"amountIn","type":"uint256","indexed":false,"internalType":"uint256"},{"name":"sharesOut","type":"uint256","indexed":false,"internalType":"uint256"},{"name":"fee","type":"uint256","indexed":false,"internalType":"uint256"}],"anonymous":false},{"type":"event","name":"WinningsClaimed","inputs":[{"name":"marketId","type":"uint256","indexed":true,"internalType":"uint256"},{"name":"claimer","type":"address","indexed":true,"internalType":"address"},{"name":"amount","type":"uint256","indexed":false,"internalType":"uint256"}],"anonymous":false}],"bytecode":{"object":"0x60a060405260c860075534801562000015575f80fd5b5060405162004b1338038062004b13833981016040819052620000389162000191565b60015f55620000473362000124565b6001600160a01b038216620000a35760405162461bcd60e51b815260206004820152601860248201527f496e76616c696420736574746c656d656e7420746f6b656e000000000000000060448201526064015b60405180910390fd5b6001600160a01b038116620000fb5760405162461bcd60e51b815260206004820152601660248201527f496e76616c6964206f7261636c6520616464726573730000000000000000000060448201526064016200009a565b6001600160a01b03918216608052600880546001600160a01b03191691909216179055620001c7565b600180546001600160a01b038381166001600160a01b0319831681179093556040519116919082907f8be0079c531659141344cd1fd0a4f28419497f9722a3daafe3b4186f6b6457e0905f90a35050565b80516001600160a01b03811681146200018c575f80fd5b919050565b5f8060408385031215620001a3575f80fd5b620001ae8362000175565b9150620001be6020840162000175565b90509250929050565b6080516149096200020a5f395f8181610309015281816106eb01528181610d020152818161147b01528181611bcb01528181611d6f015261252901526149095ff3fe608060405234801562000010575f80fd5b5060043610620001f8575f3560e01c80638da5cb5b1162000113578063d86cc71f11620000ab578063eb44fdd31162000077578063eb44fdd31462000482578063ec97908214620004a8578063f0c615c514620004b2578063f2fde38b14620004df575f80fd5b8063d86cc71f1462000412578063df55406e146200043d578063e39391b01462000454578063e839b914146200046b575f80fd5b8063b1283e7711620000eb578063b1283e7714620003c4578063ba9a7a5614620003f4578063bc063e1a14620003fe578063d73792a91462000408575f80fd5b80638da5cb5b14620003845780639cd441da1462000396578063b0d54bcf14620003ad575f80fd5b8063715018a611620001935780637dc0d1d0116200015f5780637dc0d1d0146200032b578063857620e1146200033f578063883c84c114620003565780638aeef927146200036d575f80fd5b8063715018a614620002cb57806373bc38bf14620002d55780637adbf97314620002ec5780637b9e618d1462000303575f80fd5b806356f4335211620001d357806356f43352146200024d5780635e318e071462000257578063677bd9ff146200027057806370c21eb71462000287575f80fd5b8063202a1c1514620001fc57806330ff50341462000226578063373d1ada146200023d575b5f80fd5b620002136200020d36600462003052565b620004f6565b6040519081526020015b60405180910390f35b620002136200023736600462003083565b620005cf565b62000213670de0b6b3a764000081565b6200021360075481565b6200026e62000268366004620030bb565b6200063e565b005b6200026e62000281366004620030bb565b62000719565b620002b262000298366004620030bb565b60056020525f90815260409020546001600160a01b031681565b6040516001600160a01b0390911681526020016200021d565b6200026e62000d71565b62000213620002e6366004620030ef565b62000d88565b6200026e620002fd3660046200311c565b62000f68565b620002b27f000000000000000000000000000000000000000000000000000000000000000081565b600854620002b2906001600160a01b031681565b6200026e6200035036600462003138565b6200100c565b620002136200036736600462003162565b620014fc565b6200026e6200037e366004620030bb565b62001910565b6001546001600160a01b0316620002b2565b6200026e620003a7366004620031d8565b62001c3c565b6200026e620003be366004620030bb565b62001f1e565b620003db620003d5366004620030bb565b62001fb0565b6040516200021d9b9a9998979695949392919062003288565b620002136103e881565b620002136101f481565b6200021361271081565b620002b262000423366004620030bb565b60046020525f90815260409020546001600160a01b031681565b6200026e6200044e3660046200330d565b620020a3565b620002136200046536600462003335565b620022ce565b6200026e6200047c3660046200330d565b62002745565b6200049962000493366004620030bb565b6200280a565b6040516200021d919062003372565b6200021360035481565b62000213620004c3366004620030ef565b600660209081525f928352604080842090915290825290205481565b6200026e620004f03660046200311c565b620029c7565b5f826003548110620005255760405162461bcd60e51b81526004016200051c9062003432565b60405180910390fd5b5f848152600260205260409020600681015415806200054657506007810154155b156200055857611388925050620005c8565b5f816007015482600601546200056f919062003475565b90508415620005a1578061271083600701546200058d919062003491565b620005999190620034ab565b9350620005c5565b806127108360060154620005b6919062003491565b620005c29190620034ab565b93505b50505b5092915050565b5f836003548110620005f55760405162461bcd60e51b81526004016200051c9062003432565b5f6127106007548562000609919062003491565b620006159190620034ab565b90505f620006248286620034cb565b90506200063387878362002a43565b979650505050505050565b6200064862002af7565b8060035481106200066d5760405162461bcd60e51b81526004016200051c9062003432565b5f828152600260205260409020600981015480620006c45760405162461bcd60e51b81526020600482015260136024820152724e6f206665657320746f20776974686472617760681b60448201526064016200051c565b5f600983015562000713620006e16001546001600160a01b031690565b6001600160a01b037f000000000000000000000000000000000000000000000000000000000000000016908362002b53565b50505050565b6200072362002bad565b806003548110620007485760405162461bcd60e51b81526004016200051c9062003432565b5f8281526002602052604090206001600582015460ff1660028111156200077357620007736200324a565b14620007b85760405162461bcd60e51b815260206004820152601360248201527213585c9ad95d081b9bdd081c995cdbdb1d9959606a1b60448201526064016200051c565b5f60016005830154610100900460ff166003811115620007dc57620007dc6200324a565b036200091c575f8481526004602081905260408083205490516370a0823160e01b815233928101929092526001600160a01b0316906370a0823190602401602060405180830381865afa15801562000836573d5f803e3d5ffd5b505050506040513d601f19601f820116820180604052508101906200085c9190620034e1565b90505f8111620008a35760405162461bcd60e51b81526020600482015260116024820152704e6f2077696e6e696e672073686172657360781b60448201526064016200051c565b5f85815260046020819052604091829020549151632770a7eb60e21b81526001600160a01b0390921691639dc29fac91620008e3913391869101620034f9565b5f604051808303815f87803b158015620008fb575f80fd5b505af11580156200090e573d5f803e3d5ffd5b505050508091505062000cb7565b60026005830154610100900460ff1660038111156200093f576200093f6200324a565b0362000a44575f848152600560205260408082205490516370a0823160e01b81523360048201526001600160a01b03909116906370a0823190602401602060405180830381865afa15801562000997573d5f803e3d5ffd5b505050506040513d601f19601f82011682018060405250810190620009bd9190620034e1565b90505f811162000a045760405162461bcd60e51b81526020600482015260116024820152704e6f2077696e6e696e672073686172657360781b60448201526064016200051c565b5f8581526005602052604090819020549051632770a7eb60e21b81526001600160a01b0390911690639dc29fac90620008e39033908590600401620034f9565b60036005830154610100900460ff16600381111562000a675762000a676200324a565b0362000cb7575f8481526004602081905260408083205490516370a0823160e01b815233928101929092526001600160a01b0316906370a0823190602401602060405180830381865afa15801562000ac1573d5f803e3d5ffd5b505050506040513d601f19601f8201168201806040525081019062000ae79190620034e1565b5f868152600560205260408082205490516370a0823160e01b815233600482015292935090916001600160a01b03909116906370a0823190602401602060405180830381865afa15801562000b3e573d5f803e3d5ffd5b505050506040513d601f19601f8201168201806040525081019062000b649190620034e1565b90505f82118062000b7457505f81115b62000bb85760405162461bcd60e51b8152602060048201526013602482015272139bc81cda185c995cc81d1bc81c99599d5b99606a1b60448201526064016200051c565b811562000c2f575f86815260046020819052604091829020549151632770a7eb60e21b81526001600160a01b0390921691639dc29fac9162000bff913391879101620034f9565b5f604051808303815f87803b15801562000c17575f80fd5b505af115801562000c2a573d5f803e3d5ffd5b505050505b801562000ca6575f8681526005602052604090819020549051632770a7eb60e21b81526001600160a01b0390911690639dc29fac9062000c769033908590600401620034f9565b5f604051808303815f87803b15801562000c8e575f80fd5b505af115801562000ca1573d5f803e3d5ffd5b505050505b62000cb2818362003475565b925050505b5f811162000cf45760405162461bcd60e51b8152602060048201526009602482015268139bc81c185e5bdd5d60ba1b60448201526064016200051c565b62000d2a6001600160a01b037f000000000000000000000000000000000000000000000000000000000000000016338362002b53565b604051818152339085907f5380cf6fe903b40c6d5a9e0dfbca2f3a423f0a21520b4d5947ed5169bdba946d9060200160405180910390a350505062000d6e60015f55565b50565b62000d7b62002af7565b62000d865f62002c06565b565b5f82600354811062000dae5760405162461bcd60e51b81526004016200051c9062003432565b5f8481526002602090815260408083206004928390528184205491516370a0823160e01b81526001600160a01b0388811694820194909452909392909116906370a0823190602401602060405180830381865afa15801562000e12573d5f803e3d5ffd5b505050506040513d601f19601f8201168201806040525081019062000e389190620034e1565b5f878152600560205260408082205490516370a0823160e01b81526001600160a01b038981166004830152939450919216906370a0823190602401602060405180830381865afa15801562000e8f573d5f803e3d5ffd5b505050506040513d601f19601f8201168201806040525081019062000eb59190620034e1565b90505f81831062000ec7578162000ec9565b825b905080158062000edb57506008840154155b1562000eee575f955050505050620005c8565b5f846008015485600901548362000f06919062003491565b62000f129190620034ab565b5f8a81526006602090815260408083206001600160a01b038d16845290915290205490915080821162000f4e575f9750505050505050620005c8565b62000f5a8183620034cb565b9a9950505050505050505050565b62000f7262002af7565b6001600160a01b03811662000fbb5760405162461bcd60e51b815260206004820152600e60248201526d496e76616c6964206f7261636c6560901b60448201526064016200051c565b600880546001600160a01b038381166001600160a01b0319831681179093556040519116919082907f078c3b417dadf69374a59793b829c52001247130433427049317bde56607b1b7905f90a35050565b6200101662002bad565b8260035481106200103b5760405162461bcd60e51b81526004016200051c9062003432565b5f8311806200104957505f82115b620010975760405162461bcd60e51b815260206004820152601a60248201527f4d7573742072656d6f766520736f6d65206c697175696469747900000000000060448201526064016200051c565b5f84815260026020526040812090600582015460ff166002811115620010c157620010c16200324a565b1480620010e957506001600582015460ff166002811115620010e757620010e76200324a565b145b620011415760405162461bcd60e51b815260206004820152602160248201527f4d61726b6574206d75737420626520616374697665206f72207265736f6c76656044820152601960fa1b60648201526084016200051c565b5f8581526004602081905260408083205490516370a0823160e01b815233928101929092526001600160a01b0316906370a0823190602401602060405180830381865afa15801562001195573d5f803e3d5ffd5b505050506040513d601f19601f82011682018060405250810190620011bb9190620034e1565b5f878152600560205260408082205490516370a0823160e01b815233600482015292935090916001600160a01b03909116906370a0823190602401602060405180830381865afa15801562001212573d5f803e3d5ffd5b505050506040513d601f19601f82011682018060405250810190620012389190620034e1565b9050858210156200128c5760405162461bcd60e51b815260206004820152601760248201527f496e73756666696369656e742059455320746f6b656e7300000000000000000060448201526064016200051c565b84811015620012d75760405162461bcd60e51b8152602060048201526016602482015275496e73756666696369656e74204e4f20746f6b656e7360501b60448201526064016200051c565b5f858710620012e75785620012e9565b865b90505f81116200133c5760405162461bcd60e51b815260206004820152601f60248201527f4d7573742068617665206d61746368696e67205945532f4e4f2070616972730060448201526064016200051c565b5f88815260046020819052604091829020549151632770a7eb60e21b81526001600160a01b0390921691639dc29fac916200137c913391869101620034f9565b5f604051808303815f87803b15801562001394575f80fd5b505af1158015620013a7573d5f803e3d5ffd5b5050505f8981526005602052604090819020549051632770a7eb60e21b81526001600160a01b039091169150639dc29fac90620013eb9033908590600401620034f9565b5f604051808303815f87803b15801562001403575f80fd5b505af115801562001416573d5f803e3d5ffd5b5050505080846006015f8282546200142f9190620034cb565b9250508190555080846007015f8282546200144b9190620034cb565b9250508190555080846008015f828254620014679190620034cb565b90915550620014a390506001600160a01b037f000000000000000000000000000000000000000000000000000000000000000016338362002b53565b6040805182815260208101839052908101829052339089907f9c27aedc1d1fccd4271dc15980dab26a907cdb41ed08aef747c6d0a9680f55ce9060600160405180910390a35050505050620014f760015f55565b505050565b5f826200154c5760405162461bcd60e51b815260206004820152601860248201527f5175657374696f6e2063616e6e6f7420626520656d707479000000000000000060448201526064016200051c565b428211620015a75760405162461bcd60e51b815260206004820152602160248201527f5265736f6c7574696f6e2074696d65206d75737420626520696e2066757475726044820152606560f81b60648201526084016200051c565b620015b7426301e1338062003475565b8210620016075760405162461bcd60e51b815260206004820152601760248201527f5265736f6c7574696f6e2074696d6520746f6f2066617200000000000000000060448201526064016200051c565b60038054905f620016188362003512565b919050559050620016298162002c57565b6040516020016200163b91906200352d565b604051602081830303815290604052600182306040516200165c9062002fc9565b6200166b94939291906200355a565b604051809103905ff08015801562001685573d5f803e3d5ffd5b505f82815260046020526040902080546001600160a01b0319166001600160a01b0392909216919091179055620016bc8162002c57565b604051602001620016ce9190620035b2565b6040516020818303038152906040525f8230604051620016ee9062002fc9565b620016fd9493929190620035de565b604051809103905ff08015801562001717573d5f803e3d5ffd5b5060055f8381526020019081526020015f205f6101000a8154816001600160a01b0302191690836001600160a01b0316021790555060405180610160016040528082815260200185858080601f0160208091040260200160405190810160405280939291908181526020018383808284375f9201829052509385525050336020840152506040820185905242606083015260809091019081526020015f81525f602080830182905260408084018390526060840183905260809093018290528482526002815291902082518155908201516001820190620017f99082620036ce565b506040820151600282810180546001600160a01b0319166001600160a01b0390931692909217909155606083015160038301556080830151600483015560a08301516005830180549192909160ff19169060019084908111156200186157620018616200324a565b021790555060c082015160058201805461ff0019166101008360038111156200188e576200188e6200324a565b021790555060e08201518160060155610100820151816007015561012082015181600801556101408201518160090155905050336001600160a01b0316817f03e783e31593f59fda73a59d05e2525d610a533995cce4d4750186c3b6bf80bb868686604051620019019392919062003797565b60405180910390a39392505050565b6200191a62002bad565b8060035481106200193f5760405162461bcd60e51b81526004016200051c9062003432565b5f8281526002602090815260408083206004928390528184205491516370a0823160e01b8152339381019390935292916001600160a01b03909116906370a0823190602401602060405180830381865afa158015620019a0573d5f803e3d5ffd5b505050506040513d601f19601f82011682018060405250810190620019c69190620034e1565b5f858152600560205260408082205490516370a0823160e01b815233600482015292935090916001600160a01b03909116906370a0823190602401602060405180830381865afa15801562001a1d573d5f803e3d5ffd5b505050506040513d601f19601f8201168201806040525081019062001a439190620034e1565b90505f81831062001a55578162001a57565b825b90505f811162001aa25760405162461bcd60e51b8152602060048201526015602482015274139bc81b1a5c5d5a591a5d1e481c1c9bdd9a591959605a1b60448201526064016200051c565b5f84600801541162001af05760405162461bcd60e51b8152602060048201526016602482015275139bc81b1a5c5d5a591a5d1e481a5b881b585c9ad95d60521b60448201526064016200051c565b5f846008015485600901548362001b08919062003491565b62001b149190620034ab565b5f88815260066020908152604080832033845290915290205490915080821162001b745760405162461bcd60e51b815260206004820152601060248201526f4e6f206665657320746f20636c61696d60801b60448201526064016200051c565b5f62001b818284620034cb565b5f8a81526006602090815260408083203384529091528120859055600989018054929350839290919062001bb7908490620034cb565b9091555062001bf390506001600160a01b037f000000000000000000000000000000000000000000000000000000000000000016338362002b53565b60405181815233908a907f2fb9b1335558563879d93c1b00ba285ba96af69af01ebede2933b71c59beb8639060200160405180910390a3505050505050505062000d6e60015f55565b62001c4662002bad565b81600354811062001c6b5760405162461bcd60e51b81526004016200051c9062003432565b825f808281526002602081905260409091206005015460ff169081111562001c975762001c976200324a565b1462001cb75760405162461bcd60e51b81526004016200051c90620037ce565b5f81815260026020526040902060030154421062001d095760405162461bcd60e51b815260206004820152600e60248201526d13585c9ad95d08195e1c1a5c995960921b60448201526064016200051c565b5f831162001d545760405162461bcd60e51b8152602060048201526017602482015276416d6f756e74206d75737420626520706f73697469766560481b60448201526064016200051c565b5f84815260026020526040902062001d986001600160a01b037f00000000000000000000000000000000000000000000000000000000000000001633308762002d99565b5f858152600460208190526040918290205491516340c10f1960e01b81526001600160a01b03909216916340c10f199162001dd8913391899101620034f9565b5f604051808303815f87803b15801562001df0575f80fd5b505af115801562001e03573d5f803e3d5ffd5b5050505f86815260056020526040908190205490516340c10f1960e01b81526001600160a01b0390911691506340c10f199062001e479033908890600401620034f9565b5f604051808303815f87803b15801562001e5f575f80fd5b505af115801562001e72573d5f803e3d5ffd5b5050505083816006015f82825462001e8b919062003475565b9250508190555083816007015f82825462001ea7919062003475565b9250508190555083816008015f82825462001ec3919062003475565b90915550506040805185815260208101869052908101859052339086907f089607a52cca0d390ff7d0ad4e97545804dcc41418e1daee9ec3948596fec9449060600160405180910390a350505062001f1a60015f55565b5050565b62001f2862002af7565b6101f481111562001f6b5760405162461bcd60e51b815260206004820152600c60248201526b08ccaca40e8dede40d0d2ced60a31b60448201526064016200051c565b600780549082905560408051828152602081018490527f528d9479e9f9889a87a3c30c7f7ba537e5e59c4c85a37733b16e57c62df61302910160405180910390a15050565b60026020525f90815260409020805460018201805491929162001fd39062003649565b80601f0160208091040260200160405190810160405280929190818152602001828054620020019062003649565b8015620020505780601f10620020265761010080835404028352916020019162002050565b820191905f5260205f20905b8154815290600101906020018083116200203257829003601f168201915b50505050600283015460038401546004850154600586015460068701546007880154600889015460099099015497986001600160a01b0390961697949650929460ff80841695610100909404169391928b565b6008546001600160a01b03163314620020f95760405162461bcd60e51b81526020600482015260176024820152764f6e6c79206f7261636c652063616e207265736f6c766560481b60448201526064016200051c565b8160035481106200211e5760405162461bcd60e51b81526004016200051c9062003432565b5f83815260026020526040812090600582015460ff1660028111156200214857620021486200324a565b14620021685760405162461bcd60e51b81526004016200051c90620037ce565b8060030154421015620021b55760405162461bcd60e51b8152602060048201526014602482015273546f6f206561726c7920746f207265736f6c766560601b60448201526064016200051c565b6001836003811115620021cc57620021cc6200324a565b1480620021ed57506002836003811115620021eb57620021eb6200324a565b145b806200220d575060038360038111156200220b576200220b6200324a565b145b6200224d5760405162461bcd60e51b815260206004820152600f60248201526e496e76616c6964206f7574636f6d6560881b60448201526064016200051c565b600581018054600160ff1982168117835585929161ffff1916176101008360038111156200227f576200227f6200324a565b0217905550336001600160a01b0316847f13bfa3c09213a32e3e4e61fbacd90900cec1e99511766660189122444fdeec7d85604051620022c09190620037f9565b60405180910390a350505050565b5f620022d962002bad565b846003548110620022fe5760405162461bcd60e51b81526004016200051c9062003432565b855f808281526002602081905260409091206005015460ff16908111156200232a576200232a6200324a565b146200234a5760405162461bcd60e51b81526004016200051c90620037ce565b5f8181526002602052604090206003015442106200239c5760405162461bcd60e51b815260206004820152600e60248201526d13585c9ad95d08195e1c1a5c995960921b60448201526064016200051c565b5f8511620023e75760405162461bcd60e51b8152602060048201526017602482015276416d6f756e74206d75737420626520706f73697469766560481b60448201526064016200051c565b5f87815260026020526040902060088101546103e810620024445760405162461bcd60e51b8152602060048201526016602482015275496e73756666696369656e74206c697175696469747960501b60448201526064016200051c565b5f6127106007548862002458919062003491565b620024649190620034ab565b90505f620024738289620034cb565b9050620024828a8a8362002a43565b955086861015620024ca5760405162461bcd60e51b81526020600482015260116024820152700a6d8d2e0e0c2ceca40e8dede40d0d2ced607b1b60448201526064016200051c565b5f86116200251b5760405162461bcd60e51b815260206004820152601a60248201527f496e73756666696369656e74206f757470757420616d6f756e7400000000000060448201526064016200051c565b620025526001600160a01b037f00000000000000000000000000000000000000000000000000000000000000001633308b62002d99565b81836009015f82825462002567919062003475565b9250508190555080836008015f82825462002583919062003475565b909155505088156200263a5780836006015f828254620025a4919062003475565b9250508190555085836007015f828254620025c09190620034cb565b90915550505f8a8152600460208190526040918290205491516340c10f1960e01b81526001600160a01b03909216916340c10f1991620026059133918b9101620034f9565b5f604051808303815f87803b1580156200261d575f80fd5b505af115801562002630573d5f803e3d5ffd5b50505050620026e0565b80836007015f8282546200264f919062003475565b9250508190555085836006015f8282546200266b9190620034cb565b90915550505f8a815260056020526040908190205490516340c10f1960e01b81526001600160a01b03909116906340c10f1990620026b09033908a90600401620034f9565b5f604051808303815f87803b158015620026c8575f80fd5b505af1158015620026db573d5f803e3d5ffd5b505050505b604080518a15158152602081018a90529081018790526060810183905233908b907f970c42179b37e4fcbdd1b25d21573b813813d435295bd6f7a95351146f31d6689060800160405180910390a350505050506200273d60015f55565b949350505050565b6008546001600160a01b031633146200279b5760405162461bcd60e51b81526020600482015260176024820152764f6e6c79206f7261636c652063616e207265736f6c766560481b60448201526064016200051c565b816003548110620027c05760405162461bcd60e51b81526004016200051c9062003432565b5f83815260026020526040812090600582015460ff166002811115620027ea57620027ea6200324a565b14620021b55760405162461bcd60e51b81526004016200051c90620037ce565b6200281462002fd7565b816003548110620028395760405162461bcd60e51b81526004016200051c9062003432565b60025f8481526020019081526020015f20604051806101600160405290815f8201548152602001600182018054620028719062003649565b80601f01602080910402602001604051908101604052809291908181526020018280546200289f9062003649565b8015620028ee5780601f10620028c457610100808354040283529160200191620028ee565b820191905f5260205f20905b815481529060010190602001808311620028d057829003601f168201915b50505091835250506002828101546001600160a01b031660208301526003830154604083015260048301546060830152600583015460809092019160ff16908111156200293f576200293f6200324a565b60028111156200295357620029536200324a565b81526020016005820160019054906101000a900460ff1660038111156200297e576200297e6200324a565b60038111156200299257620029926200324a565b815260200160068201548152602001600782015481526020016008820154815260200160098201548152505091505b50919050565b620029d162002af7565b6001600160a01b03811662002a385760405162461bcd60e51b815260206004820152602660248201527f4f776e61626c653a206e6577206f776e657220697320746865207a65726f206160448201526564647265737360d01b60648201526084016200051c565b62000d6e8162002c06565b5f8381526002602052604081206006810154600782015481158062002a66575080155b1562002a785784935050505062002af0565b5f62002a85828462003491565b9050861562002ac6575f62002a9b878562003475565b90505f62002aaa8284620034ab565b905062002ab88185620034cb565b965050505050505062002af0565b5f62002ad3878462003475565b90505f62002ae28284620034ab565b905062002ab88186620034cb565b9392505050565b6001546001600160a01b0316331462000d865760405162461bcd60e51b815260206004820181905260248201527f4f776e61626c653a2063616c6c6572206973206e6f7420746865206f776e657260448201526064016200051c565b620014f78363a9059cbb60e01b848460405160240162002b75929190620034f9565b60408051601f198184030181529190526020810180516001600160e01b03166001600160e01b03199093169290921790915262002dd3565b60025f540362002c005760405162461bcd60e51b815260206004820152601f60248201527f5265656e7472616e637947756172643a207265656e7472616e742063616c6c0060448201526064016200051c565b60025f55565b600180546001600160a01b038381166001600160a01b0319831681179093556040519116919082907f8be0079c531659141344cd1fd0a4f28419497f9722a3daafe3b4186f6b6457e0905f90a35050565b6060815f0362002c7e5750506040805180820190915260018152600360fc1b602082015290565b815f5b811562002cad578062002c948162003512565b915062002ca59050600a83620034ab565b915062002c81565b5f8167ffffffffffffffff81111562002cca5762002cca62003635565b6040519080825280601f01601f19166020018201604052801562002cf5576020820181803683370190505b509050815b851562002d905762002d0e600182620034cb565b90505f62002d1e600a88620034ab565b62002d2b90600a62003491565b62002d379088620034cb565b62002d4490603062003809565b90505f8160f81b90508084848151811062002d635762002d6362003825565b60200101906001600160f81b03191690815f1a90535062002d86600a89620034ab565b9750505062002cfa565b50949350505050565b6040516001600160a01b0380851660248301528316604482015260648101829052620007139085906323b872dd60e01b9060840162002b75565b5f62002e29826040518060400160405280602081526020017f5361666545524332303a206c6f772d6c6576656c2063616c6c206661696c6564815250856001600160a01b031662002ead9092919063ffffffff16565b905080515f148062002e4c57508080602001905181019062002e4c919062003839565b620014f75760405162461bcd60e51b815260206004820152602a60248201527f5361666545524332303a204552433230206f7065726174696f6e20646964206e6044820152691bdd081cdd58d8d9595960b21b60648201526084016200051c565b60606200273d84845f85855f80866001600160a01b0316858760405162002ed5919062003857565b5f6040518083038185875af1925050503d805f811462002f11576040519150601f19603f3d011682016040523d82523d5f602084013e62002f16565b606091505b509150915062000633878383876060831562002f965782515f0362002f8e576001600160a01b0385163b62002f8e5760405162461bcd60e51b815260206004820152601d60248201527f416464726573733a2063616c6c20746f206e6f6e2d636f6e747261637400000060448201526064016200051c565b50816200273d565b6200273d838381511562002fad5781518083602001fd5b8060405162461bcd60e51b81526004016200051c919062003874565b61104b806200388983390190565b6040518061016001604052805f8152602001606081526020015f6001600160a01b031681526020015f81526020015f81526020015f60028111156200302057620030206200324a565b81526020015f81526020015f81526020015f81526020015f81526020015f81525090565b801515811462000d6e575f80fd5b5f806040838503121562003064575f80fd5b823591506020830135620030788162003044565b809150509250929050565b5f805f6060848603121562003096575f80fd5b833592506020840135620030aa8162003044565b929592945050506040919091013590565b5f60208284031215620030cc575f80fd5b5035919050565b80356001600160a01b0381168114620030ea575f80fd5b919050565b5f806040838503121562003101575f80fd5b823591506200311360208401620030d3565b90509250929050565b5f602082840312156200312d575f80fd5b62002af082620030d3565b5f805f606084860312156200314b575f80fd5b505081359360208301359350604090920135919050565b5f805f6040848603121562003175575f80fd5b833567ffffffffffffffff808211156200318d575f80fd5b818601915086601f830112620031a1575f80fd5b813581811115620031b0575f80fd5b876020828501011115620031c2575f80fd5b6020928301989097509590910135949350505050565b5f8060408385031215620031ea575f80fd5b50508035926020909101359150565b5f5b8381101562003215578181015183820152602001620031fb565b50505f910152565b5f815180845262003236816020860160208601620031f9565b601f01601f19169290920160200192915050565b634e487b7160e01b5f52602160045260245ffd5b600381106200327157620032716200324a565b9052565b600481106200327157620032716200324a565b5f6101608d8352806020840152620032a38184018e6200321d565b6001600160a01b038d166040850152606084018c9052608084018b90529150620032d3905060a08301896200325e565b620032e260c083018862003275565b8560e08301528461010083015283610120830152826101408301529c9b505050505050505050505050565b5f80604083850312156200331f575f80fd5b8235915060208301356004811062003078575f80fd5b5f805f806080858703121562003349575f80fd5b8435935060208501356200335d8162003044565b93969395505050506040820135916060013590565b60208152815160208201525f60208301516101608060408501526200339c6101808501836200321d565b91506040850151620033b960608601826001600160a01b03169052565b5060608501516080850152608085015160a085015260a0850151620033e260c08601826200325e565b5060c0850151620033f760e086018262003275565b5060e0850151610100858101919091528501516101208086019190915285015161014080860191909152909401519390920192909252919050565b60208082526015908201527413585c9ad95d08191bd95cc81b9bdd08195e1a5cdd605a1b604082015260600190565b634e487b7160e01b5f52601160045260245ffd5b808201808211156200348b576200348b62003461565b92915050565b80820281158282048414176200348b576200348b62003461565b5f82620034c657634e487b7160e01b5f52601260045260245ffd5b500490565b818103818111156200348b576200348b62003461565b5f60208284031215620034f2575f80fd5b5051919050565b6001600160a01b03929092168252602082015260400190565b5f6001820162003526576200352662003461565b5060010190565b635945532d60e01b81525f82516200354d816004850160208701620031f9565b9190910160040192915050565b60a081525f6200356e60a08301876200321d565b8281036020840152600381526259455360e81b602082015260408101915050841515604083015283606083015260018060a01b038316608083015295945050505050565b624e4f2d60e81b81525f8251620035d1816003850160208701620031f9565b9190910160030192915050565b60a081525f620035f260a08301876200321d565b828103602084015260028152614e4f60f01b602082015260408101915050841515604083015283606083015260018060a01b038316608083015295945050505050565b634e487b7160e01b5f52604160045260245ffd5b600181811c908216806200365e57607f821691505b602082108103620029c157634e487b7160e01b5f52602260045260245ffd5b601f821115620014f7575f81815260208120601f850160051c81016020861015620036a55750805b601f850160051c820191505b81811015620036c657828155600101620036b1565b505050505050565b815167ffffffffffffffff811115620036eb57620036eb62003635565b6200370381620036fc845462003649565b846200367d565b602080601f83116001811462003739575f8415620037215750858301515b5f19600386901b1c1916600185901b178555620036c6565b5f85815260208120601f198616915b82811015620037695788860151825594840194600190910190840162003748565b50858210156200378757878501515f19600388901b60f8161c191681555b5050505050600190811b01905550565b60408152826040820152828460608301375f606084830101525f6060601f19601f8601168301019050826020830152949350505050565b6020808252601190820152704d61726b6574206e6f742061637469766560781b604082015260600190565b602081016200348b828462003275565b60ff81811683821601908111156200348b576200348b62003461565b634e487b7160e01b5f52603260045260245ffd5b5f602082840312156200384a575f80fd5b815162002af08162003044565b5f82516200386a818460208701620031f9565b9190910192915050565b602081525f62002af060208301846200321d56fe60c060405234801562000010575f80fd5b506040516200104b3803806200104b8339810160408190526200003391620001a3565b84846003620000438382620002d6565b506004620000528282620002d6565b5050506200006f620000696200009060201b60201c565b62000094565b82151560805260a0829052620000858162000094565b50505050506200039e565b3390565b600580546001600160a01b038381166001600160a01b0319831681179093556040519116919082907f8be0079c531659141344cd1fd0a4f28419497f9722a3daafe3b4186f6b6457e0905f90a35050565b634e487b7160e01b5f52604160045260245ffd5b5f82601f83011262000109575f80fd5b81516001600160401b0380821115620001265762000126620000e5565b604051601f8301601f19908116603f01168101908282118183101715620001515762000151620000e5565b816040528381526020925086838588010111156200016d575f80fd5b5f91505b8382101562000190578582018301518183018401529082019062000171565b5f93810190920192909252949350505050565b5f805f805f60a08688031215620001b8575f80fd5b85516001600160401b0380821115620001cf575f80fd5b620001dd89838a01620000f9565b96506020880151915080821115620001f3575f80fd5b506200020288828901620000f9565b9450506040860151801515811462000218575f80fd5b6060870151608088015191945092506001600160a01b03811681146200023c575f80fd5b809150509295509295909350565b600181811c908216806200025f57607f821691505b6020821081036200027e57634e487b7160e01b5f52602260045260245ffd5b50919050565b601f821115620002d1575f81815260208120601f850160051c81016020861015620002ac5750805b601f850160051c820191505b81811015620002cd57828155600101620002b8565b5050505b505050565b81516001600160401b03811115620002f257620002f2620000e5565b6200030a816200030384546200024a565b8462000284565b602080601f83116001811462000340575f8415620003285750858301515b5f19600386901b1c1916600185901b178555620002cd565b5f85815260208120601f198616915b8281101562000370578886015182559484019460019091019084016200034f565b50858210156200038e57878501515f19600388901b60f8161c191681555b5050505050600190811b01905550565b60805160a051610c8b620003c05f395f6101b701525f6102310152610c8b5ff3fe608060405234801561000f575f80fd5b5060043610610111575f3560e01c8063715018a61161009e5780639dc29fac1161006e5780639dc29fac14610253578063a457c2d714610266578063a9059cbb14610279578063dd62ed3e1461028c578063f2fde38b1461029f575f80fd5b8063715018a6146102015780638da5cb5b1461020957806395d89b4114610224578063983babb41461022c575f80fd5b8063313ce567116100e4578063313ce5671461017b578063395093511461018a57806340c10f191461019d5780636ed71ede146101b257806370a08231146101d9575f80fd5b806306fdde0314610115578063095ea7b31461013357806318160ddd1461015657806323b872dd14610168575b5f80fd5b61011d6102b2565b60405161012a9190610ae6565b60405180910390f35b610146610141366004610b4c565b610342565b604051901515815260200161012a565b6002545b60405190815260200161012a565b610146610176366004610b74565b61035b565b6040516012815260200161012a565b610146610198366004610b4c565b61037e565b6101b06101ab366004610b4c565b61039f565b005b61015a7f000000000000000000000000000000000000000000000000000000000000000081565b61015a6101e7366004610bad565b6001600160a01b03165f9081526020819052604090205490565b6101b06103b5565b6005546040516001600160a01b03909116815260200161012a565b61011d6103c8565b6101467f000000000000000000000000000000000000000000000000000000000000000081565b6101b0610261366004610b4c565b6103d7565b610146610274366004610b4c565b6103e9565b610146610287366004610b4c565b610468565b61015a61029a366004610bcd565b610475565b6101b06102ad366004610bad565b61049f565b6060600380546102c190610bfe565b80601f01602080910402602001604051908101604052809291908181526020018280546102ed90610bfe565b80156103385780601f1061030f57610100808354040283529160200191610338565b820191905f5260205f20905b81548152906001019060200180831161031b57829003601f168201915b5050505050905090565b5f3361034f818585610518565b60019150505b92915050565b5f3361036885828561063c565b6103738585856106b4565b506001949350505050565b5f3361034f8185856103908383610475565b61039a9190610c36565b610518565b6103a7610856565b6103b182826108b0565b5050565b6103bd610856565b6103c65f61096d565b565b6060600480546102c190610bfe565b6103df610856565b6103b182826109be565b5f33816103f68286610475565b90508381101561045b5760405162461bcd60e51b815260206004820152602560248201527f45524332303a2064656372656173656420616c6c6f77616e63652062656c6f77604482015264207a65726f60d81b60648201526084015b60405180910390fd5b6103738286868403610518565b5f3361034f8185856106b4565b6001600160a01b039182165f90815260016020908152604080832093909416825291909152205490565b6104a7610856565b6001600160a01b03811661050c5760405162461bcd60e51b815260206004820152602660248201527f4f776e61626c653a206e6577206f776e657220697320746865207a65726f206160448201526564647265737360d01b6064820152608401610452565b6105158161096d565b50565b6001600160a01b03831661057a5760405162461bcd60e51b8152602060048201526024808201527f45524332303a20617070726f76652066726f6d20746865207a65726f206164646044820152637265737360e01b6064820152608401610452565b6001600160a01b0382166105db5760405162461bcd60e51b815260206004820152602260248201527f45524332303a20617070726f766520746f20746865207a65726f206164647265604482015261737360f01b6064820152608401610452565b6001600160a01b038381165f8181526001602090815260408083209487168084529482529182902085905590518481527f8c5be1e5ebec7d5bd14f71427d1e84f3dd0314c0f7b2291e5b200ac8c7c3b92591015b60405180910390a3505050565b5f6106478484610475565b90505f1981146106ae57818110156106a15760405162461bcd60e51b815260206004820152601d60248201527f45524332303a20696e73756666696369656e7420616c6c6f77616e63650000006044820152606401610452565b6106ae8484848403610518565b50505050565b6001600160a01b0383166107185760405162461bcd60e51b815260206004820152602560248201527f45524332303a207472616e736665722066726f6d20746865207a65726f206164604482015264647265737360d81b6064820152608401610452565b6001600160a01b03821661077a5760405162461bcd60e51b815260206004820152602360248201527f45524332303a207472616e7366657220746f20746865207a65726f206164647260448201526265737360e81b6064820152608401610452565b6001600160a01b0383165f90815260208190526040902054818110156107f15760405162461bcd60e51b815260206004820152602660248201527f45524332303a207472616e7366657220616d6f756e7420657863656564732062604482015265616c616e636560d01b6064820152608401610452565b6001600160a01b038481165f81815260208181526040808320878703905593871680835291849020805487019055925185815290927fddf252ad1be2c89b69c2b068fc378daa952ba7f163c4a11628f55a4df523b3ef910160405180910390a36106ae565b6005546001600160a01b031633146103c65760405162461bcd60e51b815260206004820181905260248201527f4f776e61626c653a2063616c6c6572206973206e6f7420746865206f776e65726044820152606401610452565b6001600160a01b0382166109065760405162461bcd60e51b815260206004820152601f60248201527f45524332303a206d696e7420746f20746865207a65726f2061646472657373006044820152606401610452565b8060025f8282546109179190610c36565b90915550506001600160a01b0382165f81815260208181526040808320805486019055518481527fddf252ad1be2c89b69c2b068fc378daa952ba7f163c4a11628f55a4df523b3ef910160405180910390a35050565b600580546001600160a01b038381166001600160a01b0319831681179093556040519116919082907f8be0079c531659141344cd1fd0a4f28419497f9722a3daafe3b4186f6b6457e0905f90a35050565b6001600160a01b038216610a1e5760405162461bcd60e51b815260206004820152602160248201527f45524332303a206275726e2066726f6d20746865207a65726f206164647265736044820152607360f81b6064820152608401610452565b6001600160a01b0382165f9081526020819052604090205481811015610a915760405162461bcd60e51b815260206004820152602260248201527f45524332303a206275726e20616d6f756e7420657863656564732062616c616e604482015261636560f01b6064820152608401610452565b6001600160a01b0383165f818152602081815260408083208686039055600280548790039055518581529192917fddf252ad1be2c89b69c2b068fc378daa952ba7f163c4a11628f55a4df523b3ef910161062f565b5f6020808352835180828501525f5b81811015610b1157858101830151858201604001528201610af5565b505f604082860101526040601f19601f8301168501019250505092915050565b80356001600160a01b0381168114610b47575f80fd5b919050565b5f8060408385031215610b5d575f80fd5b610b6683610b31565b946020939093013593505050565b5f805f60608486031215610b86575f80fd5b610b8f84610b31565b9250610b9d60208501610b31565b9150604084013590509250925092565b5f60208284031215610bbd575f80fd5b610bc682610b31565b9392505050565b5f8060408385031215610bde575f80fd5b610be783610b31565b9150610bf560208401610b31565b90509250929050565b600181811c90821680610c1257607f821691505b602082108103610c3057634e487b7160e01b5f52602260045260245ffd5b50919050565b8082018082111561035557634e487b7160e01b5f52601160045260245ffdfea264697066735822122093845a4c645193a9cc91fb06c81fcb5fca410ea254c4bd42dd7e52f48605219164736f6c63430008140033a264697066735822122031649108f1a3a26dde23cb54e634833b1674f9db828a23e804c72a2cbe493c1d64736f6c63430008140033","linkReferences":{}},"methodIdentifiers":{"FEE_DENOMINATOR()":"d73792a9","K_MULTIPLIER()":"373d1ada","MAX_FEE()":"bc063e1a","MINIMUM_LIQUIDITY()":"ba9a7a56","addLiquidity(uint256,uint256)":"9cd441da","buyShares(uint256,bool,uint256,uint256)":"e39391b0","claimLiquidityProviderFees(uint256)":"8aeef927","claimWinnings(uint256)":"677bd9ff","createMarket(string,uint256)":"883c84c1","forceResolveMarket(uint256,uint8)":"e839b914","getClaimableLiquidityProviderFees(uint256,address)":"73bc38bf","getMarket(uint256)":"eb44fdd3","getSharePrice(uint256,bool)":"202a1c15","getSharesOut(uint256,bool,uint256)":"30ff5034","marketCount()":"ec979082","markets(uint256)":"b1283e77","noTokens(uint256)":"70c21eb7","oracle()":"7dc0d1d0","owner()":"8da5cb5b","removeLiquidity(uint256,uint256,uint256)":"857620e1","renounceOwnership()":"715018a6","resolveMarket(uint256,uint8)":"df55406e","setOracle(address)":"7adbf973","setTradingFee(uint256)":"b0d54bcf","settlementToken()":"7b9e618d","tradingFee()":"56f43352","transferOwnership(address)":"f2fde38b","userClaimedFees(uint256,address)":"f0c615c5","withdrawFees(uint256)":"5e318e07","yesTokens(uint256)":"d86cc71f"},"id":30}